:020000040800F2
:1000000000000220999A0008D5170008DB170008A5
:10001000E1170008E7170008ED17000800000000CE
:100020000000000000000000000000001161000856
:10003000F31700080000000061630008C9630008AE
:10004000E99A0008E99A0008E99A0008E99A000884
:10005000E99A0008E99A0008E99A0008E99A000874
:10006000E99A0008E99A0008E99A0008E99A000864
:10007000E99A0008E99A0008E99A0008E99A000854
:10008000E99A0008E99A0008E99A0008E99A000844
:10009000E99A0008E99A0008E99A0008E99A000834
:1000A000E99A0008E99A0008E99A0008E99A000824
:1000B000E99A0008E99A0008E99A0008E99A000814
:1000C000E99A0008E99A0008E99A0008E99A000804
:1000D000E99A000801180008E99A0008E99A00085E
:1000E000E99A0008E99A0008E99A0008E99A0008E4
:1000F000E99A000815180008E99A0008E99A00082A
:10010000E99A0008E99A0008E99A0008E99A0008C3
:10011000E99A0008E99A0008E99A0008E99A0008B3
:1001200029180008E99A00083D180008511800082D
:10013000E99A00080000000000000000E99A0008A9
:10014000E99A0008E99A0008E99A0008E99A000883
:1001500065180008E99A000879180008E99A00086B
:10016000E99A0008E99A0008E99A0008E99A000863
:10017000E99A0008E99A0008000000000000000069
:08018000E99A0008E99A000861
:1001900010B5054C237833B9044B13B10448AFF3C1
:1001A00000800123237010BD140000200000000017
:1001B000089B000808B5034B1BB103490348AFF384
:1001C000008008BD0000000018000020089B000807
:1001D00070B54FF0FF0C4CF4E06C1CEA11541DBFDD
:1001E0001CEA135594EA0C0F95EA0C0F00F0DEF8A8
:1001F0002C4481EA030621EA4C5123EA4C5350EA8D
:10020000013518BF52EA033541F4801143F48013DD
:1002100038D0A0FB02CE4FF00005E1FB02E506F06E
:100220000042E0FB03E54FF00006E1FB03569CF0C3
:10023000000F18BF4EF0010EA4F1FF04B6F5007FC9
:1002400064F5407404D25FEA4E0E6D4146EB06063B
:1002500042EAC62141EA55514FEAC52040EA5E50C4
:100260004FEACE2EB4F1FD0C88BFBCF5E06F1ED86E
:10027000BEF1004F08BF5FEA500E50F1000041EBA5
:10028000045170BD06F0004646EA010140EA020052
:1002900081EA0301B4EB5C04C2BFD4EB0C0541EA74
:1002A000045170BD41F480114FF0000E013C00F389
:1002B000AB8014F1360FDEBF002001F0004170BDAD
:1002C000C4F10004203C35DA0C341BDC04F11404C6
:1002D000C4F1200500FA05F320FA04F001FA05F252
:1002E00040EA020001F0004221F0004110EBD3701F
:1002F00021FA04F642EB06015EEA430E08BF20EA4B
:10030000D37070BDC4F10C04C4F1200500FA04F3ED
:1003100020FA05F001FA04F240EA020001F000417F
:1003200010EBD37041F100015EEA430E08BF20EAF2
:10033000D37070BDC4F1200500FA05F24EEA020E3A
:1003400020FA04F301FA05F243EA020321FA04F069
:1003500001F0004121FA04F220EA020000EBD37020
:100360005EEA430E08BF20EAD37070BD94F0000F20
:100370000FD101F00046400041EB010111F4801F54
:1003800008BF013CF7D041EA060195F0000F18BF05
:10039000704703F00046520043EB030313F4801F41
:1003A00008BF013DF7D043EA0603704794EA0C0FFB
:1003B0000CEA135518BF95EA0C0F0CD050EA410611
:1003C00018BF52EA4306D1D181EA030101F000418E
:1003D0004FF0000070BD50EA410606BF10461946B6
:1003E00052EA430619D094EA0C0F02D150EA0136C2
:1003F00013D195EA0C0F05D152EA03361CBF104603
:1004000019460AD181EA030101F0004141F0FE41A1
:1004100041F470014FF0000070BD41F0FE4141F425
:10042000780170BD81F0004102E000BF83F000431D
:1004300030B54FEA41044FEA430594EA050F08BF7F
:1004400090EA020F1FBF54EA000C55EA020C7FEA43
:10045000645C7FEA655C00F0E2804FEA5454D4EBC0
:100460005555B8BF6D420CDD2C4480EA020281EA8A
:10047000030382EA000083EA010180EA020281EAC2
:100480000303362D88BF30BD11F0004F4FEA013114
:100490004FF4801C4CEA113102D0404261EB410123
:1004A00013F0004F4FEA03334CEA133302D05242A9
:1004B00063EB430394EA050F00F0A780A4F1010465
:1004C000D5F1200E0DDB02FA0EFC22FA05F280189F
:1004D00041F1000103FA0EF2801843FA05F3594185
:1004E0000EE0A5F120050EF1200E012A03FA0EFC04
:1004F00028BF4CF0020C43FA05F3C01851EBE3712E
:1005000001F0004507D54FF0000EDCF1000C7EEB4A
:1005100000006EEB0101B1F5801F1BD3B1F5001F88
:100520000CD349085FEA30004FEA3C0C04F10104A7
:100530004FEA445212F5800F80F09A80BCF1004FD0
:1005400008BF5FEA500C50F1000041EB045141EA52
:10055000050130BD5FEA4C0C404141EB0101013C1B
:1005600028BFB1F5801FE9D291F0000F04BF01460A
:100570000020B1FA81F308BF2033A3F10B03B3F1DC
:1005800020020CDA0C3208DD02F1140CC2F10C026C
:1005900001FA0CF021FA02F10CE002F11402D8BFCA
:1005A000C2F1200C01FA02F120FA0CFCDCBF41EA96
:1005B0000C019040E41AA2BF01EB0451294330BD65
:1005C0006FEA04041F3C1CDA0C340EDC04F1140442
:1005D000C4F1200220FA04F001FA02F340EA030019
:1005E00021FA04F345EA030130BDC4F10C04C4F15F
:1005F000200220FA02F001FA04F340EA030029463F
:1006000030BD21FA04F0294630BD94F0000F83F488
:10061000801306BF81F480110134013D4EE77FEA6B
:10062000645C18BF7FEA655C29D094EA050F08BFB7
:1006300090EA020F05D054EA000C04BF1946104698
:1006400030BD91EA030F1EBF0021002030BD5FEADC
:10065000545C05D14000494128BF41F0004130BD04
:1006600014F580043CBF01F5801130BD01F0004558
:1006700045F0FE4141F470014FF0000030BD7FEACB
:10068000645C1ABF194610467FEA655C1CBF0B46C6
:10069000024650EA013406BF52EA033591EA030FDD
:1006A00041F4002130BD00BF90F0000F04BF0021D5
:1006B000704730B54FF4806404F132044FF0000508
:1006C0004FF0000150E700BF90F0000F04BF002181
:1006D000704730B54FF4806404F1320410F00045E7
:1006E00048BF40424FF000013EE700BF42004FEAE2
:1006F000E2014FEA31014FEA02701FBF12F07F435F
:1007000093F07F4F81F06051704732F07F4208BF15
:10071000704793F07F4F04BF41F40021704730B51C
:100720004FF4607401F0004521F000411CE700BF68
:1007300050EA010208BF704730B54FF000050AE0EB
:1007400050EA010208BF704730B511F0004502D5EC
:10075000404261EB41014FF4806404F132045FEAEE
:10076000915C3FF4D8AE4FF003025FEADC0C18BF97
:1007700003325FEADC0C18BF033202EBDC02C2F189
:10078000200300FA03FC20FA02F001FA03FE40EA1B
:100790000E0021FA02F11444BDE600BF4FEA410207
:1007A00012F5001215D211D56FF47873B3EB6252C3
:1007B00012D94FEAC12343F0004343EA505311F0EA
:1007C000004F23FA02F018BF404270474FF000007C
:1007D000704750EA013005D111F0004008BF6FF0BA
:1007E000004070474FF00000704700BF53B94AB94E
:1007F000002908BF00281CBF4FF0FF314FF0FF3029
:1008000000F074B9ADF1080C6DE904CE00F006F803
:10081000DDF804E0DDE9022304B070472DE9F0477C
:10082000089D04468E46002B4DD18A42944669D9D4
:10083000B2FA82F252B101FA02F3C2F1200120FAB7
:1008400001F10CFA02FC41EA030E94404FEA1C4805
:10085000210CBEFBF8F61FFA8CF708FB16E341EA01
:10086000034306FB07F199420AD91CEB030306F187
:10087000FF3080F01F81994240F21C81023E6344A8
:100880005B1AA4B2B3FBF8F008FB103344EA03444C
:1008900000FB07F7A7420AD91CEB040400F1FF3361
:1008A00080F00A81A74240F207816444023840EA9E
:1008B0000640E41B00261DB1D4400023C5E90043D7
:1008C0003146BDE8F0878B4209D9002D00F0EF805A
:1008D0000026C5E9000130463146BDE8F087B3FA8D
:1008E00083F6002E4AD18B4202D3824200F2F98075
:1008F000841A61EB030301209E46002DE0D0C5E978
:10090000004EDDE702B9FFDEB2FA82F2002A40F0C3
:100910009280A1EB0C014FEA1C471FFA8CFE0126C6
:10092000200CB1FBF7F307FB131140EA01410EFB6A
:1009300003F0884208D91CEB010103F1FF3802D211
:10094000884200F2CB804346091AA4B2B1FBF7F00B
:1009500007FB101144EA01440EFB00FEA64508D92E
:100960001CEB040400F1FF3102D2A64500F2BB806B
:100970000846A4EB0E0440EA03409CE7C6F12007BA
:10098000B34022FA07FC4CEA030C20FA07F401FA00
:1009900006F31C43F9404FEA1C4900FA06F3B1FB89
:1009A000F9F8200C1FFA8CFE09FB181140EA0141EE
:1009B00008FB0EF0884202FA06F20BD91CEB01018B
:1009C00008F1FF3A80F08880884240F28580A8F1E3
:1009D00002086144091AA4B2B1FBF9F009FB101135
:1009E00044EA014100FB0EFE8E4508D91CEB0101D3
:1009F00000F1FF346CD28E456AD90238614440EA76
:100A00000840A0FB0294A1EB0E01A142C846A646F5
:100A100056D353D05DB1B3EB080261EB0E0101FA7E
:100A200007F722FA06F3F1401F43C5E900710026DB
:100A30003146BDE8F087C2F12003D8400CFA02FC31
:100A400021FA03F3914001434FEA1C471FFA8CFE41
:100A5000B3FBF7F007FB10360B0C43EA064300FB31
:100A60000EF69E4204FA02F408D91CEB030300F1CF
:100A7000FF382FD29E422DD9023863449B1B89B286
:100A8000B3FBF7F607FB163341EA034106FB0EF30F
:100A90008B4208D91CEB010106F1FF3816D28B42BC
:100AA00014D9023E6144C91A46EA004638E72E4688
:100AB000284605E70646E3E61846F8E64B45A9D280
:100AC000B9EB020864EB0C0E0138A3E74646EAE7EF
:100AD000204694E74046D1E7D0467BE7023B61449D
:100AE00032E7304609E76444023842E7704700BF06
:100AF00070B50D4D0D4C641BA4100026A64209D103
:100B00000B4D0C4C09F000F8641BA4100026A64203
:100B100005D170BD55F8043B98470136EEE755F80E
:100B2000043B98470136F2E740C4000840C400087F
:100B300040C4000844C4000802440346934200D164
:100B4000704703F8011BF9E780B500AF00220C21C4
:100B5000012005F01BFF0346154A136000224421C3
:100B6000012005F013FF0346124A136000222421DE
:100B7000012005F00BFF03460F4A136000224821B5
:100B8000052005F003FF03460C4A136000224821AC
:100B9000012005F0FBFE0346094A136000220821EC
:100BA000012005F0F3FE0346064A136000BF80BD36
:100BB0003000002038000020340000203C000020DD
:100BC0004000002044000020B0B58EB000AF144BB0
:100BD00007F11C041D460FCD0FC495E8070084E8FB
:100BE000070007F11C030021184605F018F9034619
:100BF0000C4A13600C4B3C461D460FCD0FC495E8C4
:100C0000070084E807003B460021184605F007F975
:100C10000346064A136000BF3837BD46B0BD00BF6B
:100C2000309B0008340100204C9B00083801002054
:100C300080B582B000AF7860274807F0F7FE274BF9
:100C40001B7883F00103DBB2002B3ED0244B93F8DA
:100C50003830002B16D1204B1B7F002B2DD01E4B84
:100C60005B7F83F00103DBB2002B26D01A4B9B7F06
:100C700083F00103DBB2002B1FD0194B012283F854
:100C800038201AE0164B93F83830012B0DD107F0BD
:100C9000E1FD144807F0ECFD124B1B88002B0CD033
:100CA0000F4B022283F8382007E00D4B93F83830C1
:100CB000022B02D1094B01221A700B4B186800233A
:100CC0000022074905F0BBFE02E0034807F068FA7E
:100CD0000A2006F0BBFAAFE74800002024010020FC
:100CE000D4000020280100203C00002080B582B004
:100CF00000AF78604FF6FF7008F04EFC114B93F890
:100D00003830022B0DD0104B1B6800220D491846BD
:100D100005F030FF0346012B10D10A4806F0D2FF40
:100D20000CE00A4B1B6800220949184605F022FF17
:100D30000346012B02D1064807F032F80A2006F0DC
:100D400085FADBE78C0000203C00002044000020F6
:100D50001C01002080B500AF72B600BFFFF7F4FEA3
:100D6000054803F0F9F907F0CBFCFFF72DFF62B659
:100D700000BF00BF80BD00BFF405002080B584B077
:100D800000AF3B4600221A605A609A60DA60444B1A
:100D9000444A1A60424B4FF480325A60404B002262
:100DA0009A603F4B01221A613D4B01221A763C4B5F
:100DB000002283F820203A4B0022DA62384B3A4A6C
:100DC0009A62374B0022DA60354B0622DA61344BE7
:100DD000012283F83020324B01225A61304800F062
:100DE0003DFF0346002B01D000F0F6FA01233B60E3
:100DF00001237B600723BB603B461946284801F06E
:100E000095F80346002B01D000F0E6FA02233B6080
:100E100002237B603B461946214801F087F80346D0
:100E2000002B01D000F0D8FA03233B6003237B6042
:100E30003B4619461A4801F079F80346002B01D0C9
:100E400000F0CAFA04233B6004237B603B4619464A
:100E5000134801F06BF80346002B01D000F0BCFAF8
:100E600005233B6005237B603B4619460C4801F097
:100E70005DF80346002B01D000F0AEFA06233B607C
:100E800006237B603B461946054801F04FF80346B0
:100E9000002B01D000F0A0FA00BF1037BD4680BD86
:100EA0003C010020002001400100000F80B58AB005
:100EB00000AF786007F1140300221A605A609A604C
:100EC000DA601A617B681B682F4A934257D100236E
:100ED0003B612E4B5B6C2D4A43F4807353642B4B68
:100EE0005B6C03F480733B613B690023FB60274B21
:100EF0001B6B264A43F001031363244B1B6B03F067
:100F00000103FB60FB687E237B610323BB6100233D
:100F1000FB6107F1140319461D4801F08BFF1D4BBF
:100F20001D4A1A601B4B00225A601A4B00229A601D
:100F3000184B0022DA60174B4FF480621A61154B90
:100F40004FF400625A61134B4FF400529A61114BF7
:100F50004FF48072DA610F4B00221A620D4B0022AF
:100F60005A620C4801F064FB0346002B01D000F0EC
:100F700033FA7B68074A9A63064A7B68936300BF2B
:100F80002837BD4680BD00BF002001400038024028
:100F900000000240840100201064024080B582B04D
:100FA00000AF00237B601C4B1B6B1B4A43F4800388
:100FB0001363194B1B6B03F480037B607B68002277
:100FC0000521382001F00AFB382001F023FB002224
:100FD00005213A2001F002FB3A2001F01BFB002220
:100FE00005213B2001F0FAFA3B2001F013FB00221F
:100FF0000521442001F0F2FA442001F00BFB00220D
:101000000521462001F0EAFA462001F003FB00BF6B
:101010000837BD4680BD00BF0038024080B485B0AF
:1010200000AFF860B9607A60FB68074A1A60BB6875
:10103000064A1A607B6880221A6000BF1437BD46DA
:101040005DF8047B704700BFE80100203C020020EF
:10105000B0B588B000AF0A4B3C1D1D460FCD0FC484
:1010600095E8070084E807003B1D0021184604F0BE
:10107000D6FE0346034A136000BF2037BD46B0BD0D
:10108000749B0008E401002080B582B000AF786056
:10109000012004F010FFFBE780B58AB000AF07F134
:1010A000140300221A605A609A60DA601A61002301
:1010B0003B61774B1B6B764A43F080031363744BA1
:1010C0001B6B03F080033B613B690023FB60704BAB
:1010D0001B6B6F4A43F0040313636D4B1B6B03F0F0
:1010E0000403FB60FB680023BB60694B1B6B684A11
:1010F00043F001031363664B1B6B03F00103BB60FA
:10110000BB6800237B60624B1B6B614A43F00203A8
:1011100013635F4B1B6B03F002037B607B68002350
:101120003B605B4B1B6B5A4A43F008031363584BFD
:101130001B6B03F008033B603B680122802155488C
:1011400002F02CF800223021534802F027F8002248
:1011500045F68331514802F021F801224FF49C51A9
:101160004D4802F01BF8012204214D4802F016F808
:101170000F237B610023BB610123FB6107F1140393
:101180001946454801F056FE80237B610123BB616F
:101190000023FB6102233B6207F1140319463D481B
:1011A00001F048FE30237B610123BB610223FB6118
:1011B00000233B6207F114031946374801F03AFE59
:1011C00003237B610123BB610223FB6100233B629C
:1011D00007F114031946314801F02CFE4FF4B043D7
:1011E0007B610123BB610023FB6103233B6207F1A9
:1011F00014031946294801F01DFE4FF49C537B61EE
:101200000123BB610123FB6102233B6207F114034D
:101210001946214801F00EFE4FF480737B610023D4
:10122000BB610123FB6107F114031946194801F062
:1012300001FE04237B610123BB610123FB610223C7
:101240003B6207F114031946154801F0F3FD8023B2
:101250007B610123BB610123FB6101233B6207F139
:10126000140319460D4801F0E5FD4FF440737B610E
:101270000123BB610223FB6101233B6207F11403DD
:101280001946064801F0D6FD00BF2837BD4680BD8F
:101290000038024000000240000802400004024002
:1012A000000C024080B500AF00F072FC00F018F8AE
:1012B000FFF7F2FEFFF772FE00F0CAF8FFF75EFDDF
:1012C00000F064FB00F08EF800F0F2FA08F01CFA6F
:1012D000FFF740FDFFF7BCFE04F09AFDFEE70000BB
:1012E00080B594B000AF07F12003302200211846EA
:1012F000FFF722FC07F10C0300221A605A609A6083
:10130000DA601A610023BB60284B1B6C274A43F04C
:1013100080531364254B1B6C03F08053BB60BB6888
:1013200000237B60224B1B68214A43F480431360F7
:101330001F4B1B6803F480437B607B6801233B6287
:101340004FF480337B620223BB634FF48003FB6363
:1013500004233B64A8237B640223BB640423FB6453
:1013600007F12003184601F033FF0346002B01D09C
:1013700000F032F80F23FB6002233B6100237B6106
:101380004FF4A053BB614FF48053FB6107F10C0392
:101390000521184602F094F90346002B01D000F015
:1013A0001BF800BF5037BD4680BD00BF003802406B
:1013B0000070004080B582B000AF78607B681B6829
:1013C000044A934201D100F005FC00BF0837BD4636
:1013D00080BD00BF0020004080B400AF72B600BFE7
:1013E000FEE7000080B500AF174B184A1A60164B95
:1013F0004FF482725A60144B00229A60124B002202
:10140000DA60114B00221A610F4B00225A610E4B19
:101410004FF400729A610C4B0022DA610A4B0022F1
:101420001A62094B00225A62074B00229A62064B4D
:101430000A22DA62044802F095FB0346002B01D031
:10144000FFF7CAFF00BF80BD3C0400200030014010
:1014500080B500AF174B184A1A60164B4FF48272D2
:101460005A60144B00229A60124B0022DA60114B32
:1014700000221A610F4B00225A610E4B4FF400728A
:101480009A610C4B0022DA610A4B00221A62094B66
:1014900000225A62074B00229A62064B0A22DA6245
:1014A000044802F05FFB0346002B01D0FFF794FFD6
:1014B00000BF80BD940400200038004080B58CB08F
:1014C00000AF786007F11C0300221A605A609A602E
:1014D000DA601A617B681B68624A934240F08B8035
:1014E0000023BB61604B5B6C5F4A43F480535364E1
:1014F0005D4B5B6C03F48053BB61BB6900237B6174
:10150000594B1B6B584A43F002031363564B1B6B3A
:1015100003F002037B617B693823FB6102233B629A
:1015200000237B620323BB620523FB6207F11C03DC
:1015300019464E4801F07EFC4D4B4E4A1A604C4B0A
:101540004FF0C0625A604A4B00229A60484B00221A
:10155000DA60474B4FF480621A61454B00225A61B2
:10156000434B00229A61424B0022DA61404B4FF418
:1015700040321A623E4B00225A623D4801F058F850
:101580000346002B01D0FFF727FF7B68384ADA6457
:10159000374A7B689363384B384A1A60364B4FF0B2
:1015A000C0625A60344B40229A60334B0022DA60AA
:1015B000314B4FF480621A612F4B00225A612E4B3F
:1015C00000229A612C4B0022DA612B4B4FF400323F
:1015D0001A62294B00225A62274801F029F8034673
:1015E000002B01D0FFF7F8FE7B68234A9A64224A59
:1015F0007B68936331E07B681B68214A93422CD15E
:1016000000233B61184B1B6C174A43F4804313645F
:10161000154B1B6C03F480433B613B690023FB606B
:10162000114B1B6B104A43F0020313630E4B1B6BF1
:1016300003F00203FB60FB684FF40443FB610223E9
:101640003B6200237B620323BB620523FB6207F13D
:101650001C031946054801F0EDFB00BF3037BD46BD
:1016600080BD00BF0030014000380240000402404D
:10167000EC040020406402404C0500205864024005
:101680000038004080B582B000AF00237B60124B71
:101690005B6C114A43F4804353640F4B5B6C03F45F
:1016A00080437B607B6800233B600B4B1B6C0A4ACA
:1016B00043F080531364084B1B6C03F080533B6072
:1016C0003B6800220F216FF0010000F087FF00BF90
:1016D0000837BD4680BD00BF0038024080B58EB0DF
:1016E00000AF78600023FB620023BB620023FB6035
:1016F000334B1B6C324A43F480731364304B1B6CC6
:1017000003F48073FB60FB6807F1100207F1140318
:101710001146184602F0F4F93B6AFB62FB6A002BA3
:1017200003D102F0C5F9786304E002F0C1F9034681
:101730005B007B637B6B234AA2FB03239B0C013B77
:10174000BB62214B214A1A601F4B40F2E732DA603C
:101750001D4ABB6A53601C4B00221A611A4B0022BF
:101760009A60194B00229A61174802F0A5FC0346C3
:1017700087F8333097F83330002B1BD1124802F032
:10178000EBFC034687F8333097F83330002B11D148
:101790002D2000F03FFF7B680F2B08D800227968CE
:1017A0002D2000F01BFF0A4A7B68136002E0012332
:1017B00087F8333097F8333018463837BD4680BD48
:1017C0000038024083DE1B43AC05002000200040AF
:1017D0000400002080B400AFFEE780B400AFFEE755
:1017E00080B400AFFEE780B400AFFEE780B400AF86
:1017F000FEE780B400AF00BFBD465DF8047B7047D4
:1018000080B500AF024803F005FA00BF80BD00BFFD
:101810003C06002080B500AF024802F00DFD00BF7D
:1018200080BD00BFAC05002080B500AF024801F0CC
:1018300097F800BF80BD00BF8401002080B500AFD5
:10184000024801F08DF800BF80BD00BFEC0400200D
:1018500080B500AF024801F083F800BF80BD00BF33
:101860004C05002080B500AF024801F079F800BFB8
:1018700080BD00BF8406002080B500AF024801F0A3
:101880006FF800BF80BD00BFE406002080B400AF49
:10189000064BD3F88830054A43F47003C2F8883009
:1018A00000BFBD465DF8047B704700BF00ED00E05F
:1018B00080B586B000AF07F1080300221A605A60B5
:1018C0009A60DA603B4600221A605A601E4B4FF065
:1018D00080421A601C4B44F29F125A601A4B00223D
:1018E0009A60194B42F20F72DA60174B00221A61AC
:1018F000154B80229A61144802F0DEFB0346002B50
:1019000001D0FFF769FD4FF48053BB6007F1080376
:1019100019460D4802F080FD0346002B01D0FFF769
:101920005BFD00233B6000237B603B461946064875
:1019300002F0A8FF0346002B01D0FFF74DFD00BFCA
:101940001837BD4680BD00BFF405002080B485B0C7
:1019500000AF78607B681B68B3F1804F0DD1002326
:10196000FB60094B1B6C084A43F001031364064BF0
:101970001B6C03F00103FB60FB6800BF1437BD461E
:101980005DF8047B704700BF0038024080B500AFAF
:10199000114B124A1A60104B4FF4E1325A600E4B51
:1019A00000229A600C4B0022DA600B4B00221A6175
:1019B000094B0C225A61084B00229A61064B002207
:1019C000DA61054802F0EEFF0346002B01D0FFF775
:1019D00003FD00BF80BD00BF3C0600200010014099
:1019E00080B58AB000AF786007F1140300221A6056
:1019F0005A609A60DA601A617B681B685C4A93429D
:101A000040F0B18000233B615A4B5B6C594A43F074
:101A100010035364574B5B6C03F010033B613B694D
:101A20000023FB60534B1B6B524A43F001031363CB
:101A3000504B1B6B03F00103FB60FB680023BB6092
:101A40004C4B1B6B4B4A43F002031363494B1B6B1C
:101A500003F00203BB60BB684FF480637B61022329
:101A6000BB610023FB6103233B6207237B6207F119
:101A700014031946404801F0DDF940237B6102233D
:101A8000BB610023FB6103233B6207237B6207F1F9
:101A900014031946394801F0CDF9394B394A1A6017
:101AA000374B4FF000625A60354B00229A60344B3E
:101AB0000022DA60324B4FF480621A61304B002210
:101AC0005A612F4B00229A612D4B0022DA612C4B78
:101AD0004FF480321A622A4B00225A62284800F0E2
:101AE000A7FD0346002B01D0FFF776FC7B68244A54
:101AF000DA63234A7B689363234B244A1A60224BA0
:101B00004FF000625A60204B40229A601E4B002228
:101B1000DA601D4B4FF480621A611B4B00225A6140
:101B2000194B00229A61184B0022DA61164B4FF4D0
:101B300080321A62144B00225A62134800F078FD7A
:101B40000346002B01D0FFF747FC7B680E4A9A63DF
:101B50000D4A7B68936300220521252000F03EFD9D
:101B6000252000F057FD00BF2837BD4680BD00BFCF
:101B70000010014000380240000002400004024012
:101B80008406002088640240E4060020B864024015
:101B900080B500AF0E4B1B680D4A43F40073136011
:101BA0000B4B1B680A4A43F480631360084B1B68A5
:101BB000074A43F480731360032000F004FD0F20F4
:101BC000FFF78CFDFFF75EFD0023184680BD00BFC8
:101BD000003C024080B400AF064B1B781A46064B0F
:101BE0001B681344044A136000BFBD465DF8047BC4
:101BF000704700BF080000204407002080B400AFF9
:101C0000034B1B681846BD465DF8047B704700BF58
:101C10004407002080B584B000AF7860FFF7EEFF86
:101C2000B8607B68FB60FB68B3F1FF3F05D00A4BEF
:101C30001B781A46FB681344FB6000BFFFF7DEFF0A
:101C40000246BB68D31AFA689A42F7D800BF00BFB1
:101C50001037BD4680BD00BF0800002080B584B0AD
:101C600000AF78600023FB737B68002B01D1012358
:101C700033E07B681B6C002B09D17868FFF716F9FD
:101C80007B6800225A647B68002283F83C207B68D2
:101C90001B6C03F01003002B18D17B681B6C23F422
:101CA000885323F0020343F002027B681A647868C9
:101CB00000F05EFA7B6800225A647B681B6C23F09C
:101CC000030343F001027B681A6401E00123FB7304
:101CD0007B68002283F83C20FB7B18461037BD460A
:101CE00080BD000080B586B000AFF860B9607A6052
:101CF00000233B61FB6893F83C30012B01D10223A8
:101D0000E9E0FB68012283F83C20FB681B689B68C4
:101D100003F00103012B18D0FB681B689A68FB686D
:101D20001B6842F001029A606D4B1B686D4AA2FB72
:101D300003239A0C13465B0013443B6102E03B69AA
:101D4000013B3B613B69002BF9D1FB681B689B6839
:101D500003F48073B3F5807F07D1FB681B689A6832
:101D6000FB681B6822F480729A60FB681B689B68A2
:101D700003F00103012B40F0A180FB681B6C23F4EE
:101D8000E06323F0010343F48072FB681A64FB688C
:101D90001B685B6803F48063002B07D0FB681B6C37
:101DA00023F4405343F48052FB681A64FB681B6CB5
:101DB00003F48053B3F5805F06D1FB685B6C23F0BE
:101DC0000602FB685A6402E0FB6800225A64FB6862
:101DD000002283F83C20444B7B61FB689B6B434AA9
:101DE000DA63FB689B6B424A1A64FB689B6B414A4F
:101DF000DA64FB681B686FF022021A60FB681B68DC
:101E00005A68FB681B6842F080625A60FB681B6876
:101E10009A68FB681B6842F480729A60FB68986B52
:101E2000FB681B684C331946BA687B6800F0AEFC4F
:101E30007B695B6803F01F03002B2AD1FB681B68DA
:101E40002D4A934215D0FB681B682C4A934205D15A
:101E5000254B5B6803F01F03002B0AD0FB681B684F
:101E6000274A934236D1204B5B6803F01003002BC6
:101E700030D1FB681B689B6803F04053002B29D1CD
:101E8000FB681B689A68FB681B6842F080429A6096
:101E900020E0FB681B68184A93421BD1FB681B6853
:101EA0009B6803F04053002B14D1FB681B689A68B1
:101EB000FB681B6842F080429A600BE0FB681B6C79
:101EC00043F01002FB681A64FB685B6C43F001028C
:101ED000FB685A64002318461837BD4680BD00BF12
:101EE0000000002083DE1B4300230140692300081B
:101EF000232400083F240008002001400021014065
:101F00000022014080B483B000AF786000BF0C377E
:101F1000BD465DF8047B704780B483B000AF786045
:101F200000BF0C37BD465DF8047B704780B485B0B8
:101F300000AF786039600023BB607B6893F83C3069
:101F4000012B01D1022305E17B68012283F83C20AB
:101F50003B681B68092B25D97B681B68D9683B68DF
:101F60001B689BB21A4613465B0013441E3B0722B4
:101F700002FA03F3DA437B681B680A40DA607B6885
:101F80001B68D9683B689A683B681B689BB2184617
:101F900003465B0003441E3B9A407B681B680A4370
:101FA000DA6022E07B681B6819693B681B689BB29A
:101FB0001A4613465B001344072202FA03F3DA437E
:101FC0007B681B680A401A617B681B6819693B685B
:101FD0009A683B681B689BB2184603465B00034443
:101FE0009A407B681B680A431A613B685B68062B52
:101FF00024D87B681B68596B3B685A6813469B0062
:102000001344053B1F2202FA03F3DA437B681B6883
:102010000A405A637B681B68596B3B681B689BB21C
:1020200018463B685A6813469B001344053B00FA68
:1020300003F27B681B680A435A634CE03B685B68A9
:102040000C2B24D87B681B68196B3B685A681346B5
:102050009B001344233B1F2202FA03F3DA437B68FD
:102060001B680A401A637B681B68196B3B681B6816
:102070009BB218463B685A6813469B001344233BA7
:1020800000FA03F27B681B680A431A6323E07B684B
:102090001B68D96A3B685A6813469B001344413B4E
:1020A0001F2202FA03F3DA437B681B680A40DA62F4
:1020B0007B681B68D96A3B681B689BB218463B6803
:1020C0005A6813469B001344413B00FA03F27B68B5
:1020D0001B680A43DA62224BFB607B681B68214A5B
:1020E000934209D13B681B68122B05D1FB685B68E2
:1020F00043F48002FB685A607B681B68194A93426C
:1021000023D13B681B68102B03D03B681B68112B45
:102110001BD1FB685B6843F40002FB685A603B68B4
:102120001B68102B11D1104B1B68104AA2FB032314
:102130009A0C13469B0013445B00BB6002E0BB6833
:10214000013BBB60BB68002BF9D17B68002283F8A0
:102150003C20002318461437BD465DF8047B7047C9
:1021600000230140002001400000002083DE1B43CB
:1021700080B485B000AF7860794BFB60FB685B682A
:1021800023F44032FB685A60FB685A687B685B68DE
:102190001A43FB685A607B681B685A687B681B6837
:1021A00022F480725A607B681B6859687B681B69DF
:1021B0001A027B681B680A435A607B681B685A686E
:1021C0007B681B6822F040725A607B681B68596804
:1021D0007B689A687B681B680A435A607B681B6847
:1021E0009A687B681B6822F400629A607B681B68AF
:1021F00099687B68DA687B681B680A439A607B6829
:102200009B6A584A934222D07B681B689A687B6815
:102210001B6822F070629A607B681B6899687B6813
:102220009A6A7B681B680A439A607B681B689A6895
:102230007B681B6822F040529A607B681B68996833
:102240007B68DA6A7B681B680A439A600FE07B68E8
:102250001B689A687B681B6822F070629A607B68D2
:102260001B689A687B681B6822F040529A607B6802
:102270001B689A687B681B6822F002029A607B6880
:102280001B6899687B681B7E5A007B681B680A4341
:102290009A607B6893F82030002B1BD07B681B680A
:1022A0005A687B681B6842F400625A607B681B684E
:1022B0005A687B681B6822F460425A607B681B681E
:1022C00059687B685B6A013B5A037B681B680A4359
:1022D0005A6007E07B681B685A687B681B6822F4B9
:1022E00000625A607B681B68DA6A7B681B6822F4AC
:1022F0007002DA627B681B68D96A7B68DB69013B24
:102300001A057B681B680A43DA627B681B689A6857
:102310007B681B6822F400729A607B681B6899686E
:102320007B6893F830305A027B681B680A439A60D6
:102330007B681B689A687B681B6822F480629A60DD
:102340007B681B6899687B685B699A027B681B687D
:102350000A439A6000BF1437BD465DF8047B70479E
:10236000002301400100000F80B584B000AF786009
:102370007B689B6BFB60FB681B6C03F05003002BBE
:102380003CD1FB681B6C43F40072FB681A64FB6869
:102390001B689B6803F04053002B2BD1FB681B7E0E
:1023A000002B27D1FB681B68DB6A03F47003002B4A
:1023B00006D0FB681B689B6803F48063002B19D16F
:1023C000FB681B685A68FB681B6822F020025A6091
:1023D000FB681B6C23F48072FB681A64FB681B6C3F
:1023E00003F48053002B05D1FB681B6C43F0010202
:1023F000FB681A64F86806F0B1F90EE0FB681B6C24
:1024000003F01003002B03D0F868FFF785FD04E00C
:10241000FB689B6BDB6C7868984700BF1037BD4644
:1024200080BD80B584B000AF78607B689B6BFB603B
:10243000F868FFF767FD00BF1037BD4680BD80B567
:1024400084B000AF78607B689B6BFB60FB684022C8
:102450001A64FB685B6C43F00402FB685A64F8681A
:10246000FFF75AFD00BF1037BD4680BD80B485B070
:1024700000AF78607B6803F00703FB600C4BDB6800
:10248000BB60BA684FF6FF031340BB60FB681A02DB
:10249000BB68134343F0BF6343F40033BB60044A9B
:1024A000BB68D36000BF1437BD465DF8047B70473E
:1024B00000ED00E080B400AF044BDB681B0A03F0C2
:1024C00007031846BD465DF8047B704700ED00E049
:1024D00080B483B000AF0346FB7197F90730002B3F
:1024E0000BDBFB7903F01F02074997F907305B0903
:1024F000012000FA02F241F8232000BF0C37BD464C
:102500005DF8047B704700BF00E100E080B483B059
:1025100000AF03463960FB7197F90730002B0ADBE7
:102520003B68DAB20C4997F907301201D2B20B447A
:1025300083F800230AE03B68DAB20849FB7903F02C
:102540000F03043B1201D2B20B441A7600BF0C37C2
:10255000BD465DF8047B704700E100E000ED00E05F
:1025600080B489B000AFF860B9607A60FB6803F0AE
:102570000703FB61FB69C3F10703042B28BF042396
:10258000BB61FB690433062B02D9FB69033B00E006
:1025900000237B614FF0FF32BB6902FA03F3DA4399
:1025A000BB681A407B699A404FF0FF317B6901FAA2
:1025B00003F3D9437B680B40134318462437BD46C9
:1025C0005DF8047B704780B582B000AF78607868B2
:1025D000FFF74CFF00BF0837BD4680BD80B586B011
:1025E00000AF0346B9607A60FB7300237B61FFF79D
:1025F00061FF78617A68B9687869FFF7B1FF0246D0
:1026000097F90F3011461846FFF780FF00BF1837C3
:10261000BD4680BD80B582B000AF0346FB7197F91F
:1026200007301846FFF754FF00BF0837BD4680BD8E
:1026300080B586B000AF786000237B61FFF7DEFADB
:1026400038617B68002B01D1012399E07B6802226D
:1026500083F835207B68002283F834207B681B6870
:102660001A687B681B6822F001021A600FE0FFF70E
:10267000C5FA02463B69D31A052B08D97B6820228C
:102680005A657B68032283F83520032378E07B6852
:102690001B681B6803F00103002BE8D17B681B68F3
:1026A0001B687B617A69384B13407B617B685A6891
:1026B0007B689B681A437B68DB681A437B681B69ED
:1026C0001A437B685B691A437B689B691A437B6882
:1026D000DB691A437B681B6A13437A6913437B6186
:1026E0007B685B6A042B07D17B68DA6A7B681B6BAB
:1026F00013437A6913437B617B681B687A691A60AC
:102700007B681B685B697B617B6923F007037B61E6
:102710007B685B6A7A6913437B617B685B6A042B25
:1027200017D17B689B6A7A6913437B617B68DB6A9C
:10273000002B0ED0786800F001FB0346002B08D078
:102740007B6840225A657B68012283F8352001238B
:1027500016E07B681B687A695A61786800F0B8FAFD
:102760000346FB607B68DB6D3F229A40FB689A6002
:102770007B6800225A657B68012283F8352000239C
:1027800018461837BD4680BD3F8010F080B586B032
:1027900000AFF860B9607A603B600023FB75FB68AE
:1027A0009B6D3B61FB6893F83430012B01D1022310
:1027B00040E0FB68012283F83420FB6893F8353051
:1027C000DBB2012B2FD1FB68022283F83520FB6896
:1027D00000225A653B687A68B968F86800F04AFADE
:1027E000FB68DB6D3F229A403B699A60FB681B687F
:1027F0001A68FB681B6842F016021A60FB681B6CC3
:10280000002B07D0FB681B681A68FB681B6842F046
:1028100008021A60FB681B681A68FB681B6842F0B4
:1028200001021A6005E0FB68002283F834200223CD
:10283000FB75FB7D18461837BD4680BD80B584B05A
:1028400000AF78607B689B6DFB60FFF7D7F9B860DD
:102850007B6893F83530DBB2022B08D07B6880228E
:102860005A657B68002283F83420012352E07B689C
:102870001B681A687B681B6822F016021A607B6866
:102880001B685A697B681B6822F080025A617B686A
:102890001B6C002B03D17B689B6C002B07D07B68E3
:1028A0001B681A687B681B6822F008021A607B6844
:1028B0001B681A687B681B6822F001021A6013E02B
:1028C000FFF79CF90246BB68D31A052B0CD97B682D
:1028D00020225A657B68032283F835207B6800221A
:1028E00083F83420032315E07B681B681B6803F022
:1028F0000103002BE4D17B68DB6D3F229A40FB682B
:102900009A607B68012283F835207B68002283F877
:102910003420002318461037BD4680BD80B483B0F4
:1029200000AF78607B6893F83530DBB2022B04D0BF
:102930007B6880225A6501230CE07B68052283F8BE
:1029400035207B681B681A687B681B6822F00102CF
:102950001A60002318460C37BD465DF8047B7047AB
:1029600080B586B000AF78600023BB608E4B1B68DB
:102970008E4AA2FB03239B0A7B617B689B6D3B61B4
:102980003B691B68FB607B68DB6D08229A40FB6833
:102990001340002B1AD07B681B681B6803F00403EC
:1029A000002B13D07B681B681A687B681B6822F0B9
:1029B00004021A607B68DB6D08229A403B699A60CA
:1029C0007B685B6D43F001027B685A657B68DB6D59
:1029D00001229A40FB681340002B12D07B681B68D1
:1029E0005B6903F08003002B0BD07B68DB6D012259
:1029F0009A403B699A607B685B6D43F002027B689A
:102A00005A657B68DB6D04229A40FB681340002BFB
:102A100012D07B681B681B6803F00203002B0BD0ED
:102A20007B68DB6D04229A403B699A607B685B6D32
:102A300043F004027B685A657B68DB6D10229A4084
:102A4000FB681340002B43D07B681B681B6803F0B6
:102A50000803002B3CD07B68DB6D10229A403B6959
:102A60009A607B681B681B6803F48023002B18D0D6
:102A70007B681B681B6803F40023002B08D17B686C
:102A80001B6C002B24D07B681B6C786898471FE078
:102A90007B689B6C002B1BD07B689B6C786898478D
:102AA00016E07B681B681B6803F48073002B07D15A
:102AB0007B681B681A687B681B6822F008021A6032
:102AC0007B681B6C002B03D07B681B6C7868984775
:102AD0007B68DB6D20229A40FB681340002B00F0DE
:102AE0008F807B681B681B6803F01003002B00F0CD
:102AF00087807B68DB6D20229A403B699A607B6807
:102B000093F83530DBB2052B36D17B681B681A6829
:102B10007B681B6822F016021A607B681B685A6982
:102B20007B681B6822F080025A617B681B6C002B5B
:102B300003D17B689B6C002B07D07B681B681A68ED
:102B40007B681B6822F008021A607B68DB6D3F22FD
:102B50009A403B699A607B68012283F835207B6844
:102B6000002283F834207B681B6D002B7ED07B68AD
:102B70001B6D7868984779E07B681B681B6803F4D5
:102B80008023002B1DD07B681B681B6803F4002387
:102B9000002B0DD17B685B6C002B31D07B685B6CAC
:102BA000786898472CE000BF00000020B5814E1BDC
:102BB0007B68DB6B002B23D07B68DB6B78689847E6
:102BC0001EE07B681B681B6803F48073002B0FD129
:102BD0007B681B681A687B681B6822F010021A6009
:102BE0007B68012283F835207B68002283F834203B
:102BF0007B68DB6B002B03D07B68DB6B78689847C6
:102C00007B685B6D002B32D07B685B6D03F001034A
:102C1000002B22D07B68052283F835207B681B6857
:102C20001A687B681B6822F001021A60BB680133D6
:102C3000BB607A699A4207D37B681B681B6803F004
:102C40000103002BF2D100E000BF7B68012283F872
:102C500035207B68002283F834207B68DB6C002BF6
:102C600005D07B68DB6C7868984700E000BF1837B8
:102C7000BD4680BD80B485B000AFF860B9607A60B1
:102C80003B60FB681B681A68FB681B6822F48022A3
:102C90001A60FB681B683A685A60FB689B68402BA7
:102CA00008D1FB681B687A689A60FB681B68BA6881
:102CB000DA6007E0FB681B68BA689A60FB681B680B
:102CC0007A68DA6000BF1437BD465DF8047B704750
:102CD00080B485B000AF78607B681B68DBB2103BC6
:102CE000144AA2FB03231B09FB60134AFB6813442D
:102CF0001B781A467B68DA65FB68032B09D97B6869
:102D00001B6823F47F7323F003031A1D7B689A6505
:102D100007E07B681B6823F47F7323F003037A6862
:102D200093657B689B6D18461437BD465DF8047B40
:102D3000704700BFABAAAAAAF09B000880B485B078
:102D400000AF78600023FB737B689B6ABB607B6885
:102D50009B69002B1FD1BB68032B56D801A252F8E8
:102D600023F000BF752D0008872D0008752D000881
:102D70000B2E00087B68DB6A03F08073002B46D0C3
:102D80000123FB7343E07B68DB6AB3F1C07F40D172
:102D90000123FB733DE07B689B69B3F5005F21D1A4
:102DA000BB68032B37D801A252F823F0BD2D0008D1
:102DB000C32D0008BD2D0008D52D00080123FB738D
:102DC00030E07B68DB6A03F08073002B25D00123A1
:102DD000FB7322E07B68DB6AB3F1C07F1FD1012364
:102DE000FB731CE0BB68022B03D9BB68032B03D029
:102DF00018E00123FB7315E07B68DB6A03F0807346
:102E0000002B0ED00123FB730BE000BF0AE000BFD4
:102E100008E000BF06E000BF04E000BF02E000BF22
:102E200000E000BFFB7B18461437BD465DF8047B0D
:102E3000704700BF80B489B000AF7860396000236C
:102E40007B6100233B610023BB610023FB616BE1DD
:102E50000122FB6902FA03F37B613B681B687A6914
:102E600013403B613A697B699A4240F05A813B6862
:102E70005B6803F00303012B05D03B685B6803F03C
:102E80000303022B30D17B689B68BB61FB695B004D
:102E9000032202FA03F3DB43BA691340BB613B68C8
:102EA000DA68FB695B0002FA03F3BA691343BB619A
:102EB0007B68BA699A607B685B68BB610122FB69C9
:102EC00002FA03F3DB43BA691340BB613B685B68FA
:102ED0001B0903F00102FB6902FA03F3BA69134309
:102EE000BB617B68BA695A603B685B6803F00303A7
:102EF000032B17D07B68DB68BB61FB695B00032297
:102F000002FA03F3DB43BA691340BB613B689A687A
:102F1000FB695B0002FA03F3BA691343BB617B6888
:102F2000BA69DA603B685B6803F00303022B23D1C4
:102F3000FB69DA087B68083253F82230BB61FB6911
:102F400003F007039B000F2202FA03F3DB43BA6985
:102F50001340BB613B681A69FB6903F007039B00E0
:102F600002FA03F3BA691343BB61FB69DA087B68B1
:102F70000832B96943F822107B681B68BB61FB69A2
:102F80005B00032202FA03F3DB43BA691340BB611F
:102F90003B685B6803F00302FB695B0002FA03F322
:102FA000BA691343BB617B68BA691A603B685B68A6
:102FB00003F44033002B00F0B4800023FB60604B2F
:102FC0005B6C5F4A43F4804353645D4B5B6C03F47A
:102FD0008043FB60FB685B4AFB699B08023352F845
:102FE0002330BB61FB6903F003039B000F2202FA4D
:102FF00003F3DB43BA691340BB617B68524A9342D7
:103000002BD07B68514A934225D07B68504A93422B
:103010001FD07B684F4A934219D07B684E4A934237
:1030200013D07B684D4A93420DD07B684C4A934243
:1030300007D07B684B4A934201D107230EE0082357
:103040000CE006230AE0052308E0042306E003233E
:1030500004E0022302E0012300E00023FA6902F009
:10306000030292009340BA691343BB613549FB697F
:103070009B080233BA6941F823203B4B9B68BB6134
:103080003B69DB43BA691340BB613B685B6803F48F
:103090008013002B03D0BA693B691343BB61324AEA
:1030A000BB699360304BDB68BB613B69DB43BA694A
:1030B0001340BB613B685B6803F40013002B03D033
:1030C000BA693B691343BB61274ABB69D360264B8E
:1030D0005B68BB613B69DB43BA691340BB613B681A
:1030E0005B6803F40033002B03D0BA693B691343D8
:1030F000BB611D4ABB6953601B4B1B68BB613B69CD
:10310000DB43BA691340BB613B685B6803F48033FF
:10311000002B03D0BA693B691343BB61124ABB69F8
:103120001360FB690133FB61FB690F2B7FF690AEE7
:1031300000BF00BF2437BD465DF8047B704700BF69
:103140000038024000380140000002400004024004
:1031500000080240000C024000100240001402402F
:1031600000180240001C0240003C014080B485B0C1
:1031700000AF78600B467B807B681A697B881340C0
:10318000002B02D00123FB7301E00023FB73FB7BC8
:1031900018461437BD465DF8047B704780B483B091
:1031A00000AF78600B467B8013467B707B78002BEA
:1031B00003D07A887B689A6103E07B881A047B6875
:1031C0009A6100BF0C37BD465DF8047B7047000074
:1031D00080B586B000AF78607B68002B01D10123F9
:1031E00067E27B681B6803F00103002B75D0884BF6
:1031F0009B6803F00C03042B0CD0854B9B6803F0F9
:103200000C03082B12D1824B5B6803F48003B3F5E7
:10321000800F0BD17E4B1B6803F40033002B5BD077
:103220007B685B68002B57D1012342E27B685B68B7
:10323000B3F5803F06D1764B1B68754A43F4803363
:1032400013601DE07B685B68B3F5A02F0CD1704B59
:103250001B686F4A43F4802313606D4B1B686C4AF4
:1032600043F4803313600BE0694B1B68684A23F416
:1032700080331360664B1B68654A23F48023136018
:103280007B685B68002B13D0FEF7B8FC386108E060
:10329000FEF7B4FC02463B69D31A642B01D9032321
:1032A00007E25B4B1B6803F40033002BF0D014E003
:1032B000FEF7A4FC386108E0FEF7A0FC02463B697B
:1032C000D31A642B01D90323F3E1514B1B6803F498
:1032D0000033002BF0D100E000BF7B681B6803F0D7
:1032E0000203002B63D04A4B9B6803F00C03002BB6
:1032F0000BD0474B9B6803F00C03082B1CD1444BAD
:103300005B6803F48003002B16D1414B1B6803F06C
:103310000203002B05D07B68DB68012B01D0012361
:10332000C7E13B4B1B6823F0F8027B681B69DB009D
:10333000374913430B603AE07B68DB68002B20D0F1
:10334000344B01221A60FEF759FC386108E0FEF7A1
:1033500055FC02463B69D31A022B01D90323A8E18D
:103360002B4B1B6803F00203002BF0D0284B1B688B
:1033700023F0F8027B681B69DB00254913430B60CF
:1033800015E0244B00221A60FEF738FC386108E093
:10339000FEF734FC02463B69D31A022B01D9032302
:1033A00087E11B4B1B6803F00203002BF0D17B6805
:1033B0001B6803F00803002B36D07B685B69002B89
:1033C00016D0154B01221A60FEF718FC386108E090
:1033D000FEF714FC02463B69D31A022B01D90323E2
:1033E00067E10B4B5B6F03F00203002BF0D01BE097
:1033F000094B00221A60FEF701FC38610EE0FEF76F
:10340000FDFB02463B69D31A022B07D9032350E187
:103410000038024000004742800E4742884B5B6FF5
:1034200003F00203002BEAD17B681B6803F004035E
:10343000002B00F097800023FB75814B1B6C03F081
:103440008053002B0FD10023BB607D4B1B6C7C4A4B
:1034500043F0805313647A4B1B6C03F08053BB60C2
:10346000BB680123FB75774B1B6803F48073002B4B
:1034700018D1744B1B68734A43F480731360FEF7D2
:10348000BDFB386108E0FEF7B9FB02463B69D31A81
:10349000022B01D903230CE16A4B1B6803F48073F0
:1034A000002BF0D07B689B68012B06D1644B1B6F0F
:1034B000634A43F0010313671CE07B689B68052B9C
:1034C0000CD15F4B1B6F5E4A43F0040313675C4BE8
:1034D0001B6F5B4A43F0010313670BE0584B1B6FF4
:1034E000574A23F001031367554B1B6F544A23F0CF
:1034F000040313677B689B68002B15D0FEF77EFBE7
:1035000038610AE0FEF77AFB02463B69D31A41F2C2
:103510008832934201D90323CBE0494B1B6F03F060
:103520000203002BEED014E0FEF768FB38610AE0DE
:10353000FEF764FB02463B69D31A41F2883293429C
:1035400001D90323B5E03E4B1B6F03F00203002BB0
:10355000EED1FB7D012B05D1394B1B6C384A23F092
:10356000805313647B689B69002B00F0A180344B6F
:103570009B6803F00C03082B5CD07B689B69022BD3
:1035800041D1314B00221A60FEF738FB386108E068
:10359000FEF734FB02463B69D31A022B01D9032301
:1035A00087E0274B1B6803F00073002BF0D17B688A
:1035B000DA697B681B6A1A437B685B6A9B011A4362
:1035C0007B689B6A5B08013B1B041A437B68DB6AD0
:1035D0001B061B4913434B601B4B01221A60FEF76D
:1035E0000DFB386108E0FEF709FB02463B69D31A80
:1035F000022B01D903235CE0114B1B6803F000731D
:10360000002BF0D054E0104B00221A60FEF7F6FABF
:10361000386108E0FEF7F2FA02463B69D31A022B42
:1036200001D9032345E0064B1B6803F00073002B10
:10363000F0D13DE07B689B69012B07D1012338E085
:103640000038024000700040600047421B4B5B683E
:10365000FB607B689B69012B28D0FB6803F4800228
:103660007B68DB699A4221D1FB6803F03F027B68EB
:103670001B6A9A421AD1FA6847F6C07313407A68F7
:10368000526A9201934211D1FB6803F440327B6885
:103690009B6A5B08013B1B049A4207D1FB6803F05D
:1036A00070627B68DB6A1B069A4201D0012300E04E
:1036B000002318461837BD4680BD00BF00380240C1
:1036C00080B584B000AF786039607B68002B01D191
:1036D0000123CCE0684B1B6803F007033A689A4269
:1036E0000CD9654B3A68D2B21A70634B1B6803F071
:1036F00007033A689A4201D00123B8E07B681B684F
:1037000003F00203002B20D07B681B6803F0040346
:10371000002B05D0594B9B68584A43F4E053936003
:103720007B681B6803F00803002B05D0534B9B6894
:10373000524A43F460439360504B9B6823F0F0027D
:103740007B689B684D4913438B607B681B6803F063
:103750000103002B44D07B685B68012B07D1474BEA
:103760001B6803F40033002B19D101237FE07B6831
:103770005B68022B03D07B685B68032B07D13F4B50
:103780001B6803F00073002B09D101236FE03B4B52
:103790001B6803F00203002B01D1012367E0374BC4
:1037A0009B6823F003027B685B68344913438B609A
:1037B000FEF724FAF8600AE0FEF720FA0246FB68FA
:1037C000D31A41F28832934201D903234FE02B4BA5
:1037D0009B6803F00C027B685B689B009A42EBD10C
:1037E000254B1B6803F007033A689A420CD2224B20
:1037F0003A68D2B21A70204B1B6803F007033A688C
:103800009A4201D0012332E07B681B6803F0040375
:10381000002B08D0194B9B6823F4E0527B68DB68CF
:10382000164913438B607B681B6803F00803002B69
:1038300009D0124B9B6823F460427B681B69DB0054
:103840000E4913438B6000F021F802460B4B9B6836
:103850001B0903F00F030A49CB5C22FA03F3094A60
:103860001360094B1B681846FDF738FF0023184604
:103870001037BD4680BD00BF003C0240003802400A
:10388000D89B000800000020040000202DE9B04F64
:1038900094B000AF00237B640023FB6400233B64EF
:1038A0000023BB64794B9B6803F00C03082B0DD0FD
:1038B000082B00F2E180002B02D0042B03D0DBE0C8
:1038C000734BBB64DBE0734BBB64D8E06F4B5B684E
:1038D00003F03F037B646D4B5B6803F48003002BB4
:1038E00063D06A4B5B689B090022BB63FA63BB6BC6
:1038F000C3F308033B6300237B63D7E90C452246EF
:103900002B464FF000004FF00001590141EAD2610F
:10391000500102460B462146511A3961294663EB94
:1039200001037B614FF000024FF00003D7E904ABC5
:1039300059468B01514643EA916351468A015146EB
:10394000B2EB0108594663EB01094FF000024FF05A
:1039500000034FEAC90343EA58734FEAC80290468E
:103960009946234618EB0303BB602B4649EB030340
:10397000FB604FF000024FF00003D7E902452946F3
:103980004B02214643EAD15321464A0210461946CA
:103990007B6C0022BB62FA62D7E90A23FCF726FFA0
:1039A00002460B461346FB6458E0384B5B689B09A4
:1039B000002218461146C0F308033B6200237B62D5
:1039C000D7E9088942464B464FF000004FF000010E
:1039D000590141EAD261500102460B464146B2EB21
:1039E000010A494663EB010B4FF000024FF0000360
:1039F0004FEA8B1343EA9A634FEA8A12B2EB0A0446
:103A000063EB0B054FF000024FF00003EB0043EABD
:103A10005473E20014461D464346E3183B604B4690
:103A200045EB03037B604FF000024FF00003D7E942
:103A3000004529468B02214643EA915321468A02DA
:103A4000104619467B6C0022BB61FA61D7E9062358
:103A5000FCF7CCFE02460B461346FB640B4B5B683F
:103A60001B0C03F0030301335B003B64FA6C3B6CFB
:103A7000B2FBF3F3BB6402E0054BBB6400BFBB6C5D
:103A800018465037BD46BDE8B08F00BF0038024031
:103A90000024F40000127A0080B400AF034B1B68CE
:103AA0001846BD465DF8047B704700BF000000204B
:103AB00080B500AFFFF7F0FF0246054B9B689B0AFD
:103AC00003F007030349CB5C22FA03F3184680BDD9
:103AD00000380240E89B000880B500AFFFF7DCFF2C
:103AE0000246054B9B685B0B03F007030349CB5C65
:103AF00022FA03F3184680BD00380240E89B000814
:103B000080B483B000AF786039607B680F221A60A0
:103B1000124B9B6803F003027B685A600F4B9B6853
:103B200003F0F0027B689A600C4B9B6803F4E05250
:103B30007B68DA60094B9B68DB0803F4E0527B6822
:103B40001A61074B1B6803F007023B681A6000BF4D
:103B50000C37BD465DF8047B704700BF003802405B
:103B6000003C024080B582B000AF78607B68002BDB
:103B700001D101237BE07B685B6A002B08D17B6865
:103B80005B68B3F5827F09D07B680022DA6105E0CB
:103B90007B6800221A617B6800225A617B680022E0
:103BA0009A627B6893F85130DBB2002B06D17B68B8
:103BB000002283F850207868FDF780FC7B680222A1
:103BC00083F851207B681B681A687B681B6822F0A9
:103BD00040021A607B685B6803F482727B689B68B2
:103BE00003F404431A437B68DB6803F400631A435D
:103BF0007B681B6903F002031A437B685B6903F06F
:103C000001031A437B689B6903F400731A437B68C2
:103C1000DB6903F038031A437B681B6A03F08003F7
:103C200042EA03017B689B6A03F400527B681B68CD
:103C30000A431A607B689B691B0C03F004017B68D4
:103C40005B6A03F010027B681B680A435A607B685A
:103C50001B68DA697B681B6822F40062DA617B68A2
:103C600000225A657B68012283F851200023184600
:103C70000837BD4680BD80B588B000AFF860B96038
:103C80003B601346FB80FDF7B9FFF861FB887B833F
:103C9000FB6893F85130DBB2012B01D002232AE1FB
:103CA000BB68002B02D0FB88002B01D1012322E14D
:103CB000FB6893F85030012B01D102231BE1FB6814
:103CC000012283F85020FB68032283F85120FB680F
:103CD00000225A65FB68BA681A63FB68FA889A86FC
:103CE000FB68FA88DA86FB6800229A63FB68002288
:103CF0009A87FB680022DA87FB6800225A64FB6817
:103D000000221A64FB689B68B3F5004F0FD1FB6873
:103D10001B681A68FB681B6822F040021A60FB6887
:103D20001B681A68FB681B6842F480421A60FB68D3
:103D30001B681B6803F04003402B07D0FB681B681F
:103D40001A68FB681B6842F040021A60FB68DB6877
:103D5000B3F5006F52D1FB685B68002B02D07B8B00
:103D6000012B45D1FB681B6B1A88FB681B68DA6066
:103D7000FB681B6B9A1CFB681A63FB68DB8E9BB2AB
:103D8000013B9AB2FB68DA8632E0FB681B689B68ED
:103D900003F00203022B12D1FB681B6B1A88FB682D
:103DA0001B68DA60FB681B6B9A1CFB681A63FB6874
:103DB000DB8E9BB2013B9AB2FB68DA8618E0FDF716
:103DC0001DFF0246FB69D31A3A689A4203D83B6842
:103DD000B3F1FF3F02D13B68002B09D1FB68012200
:103DE00083F85120FB68002283F85020032382E0EF
:103DF000FB68DB8E9BB2002BC7D153E0FB685B688E
:103E0000002B02D07B8B012B47D1FB681A6BFB6820
:103E10001B680C3312781A70FB681B6B5A1CFB680A
:103E20001A63FB68DB8E9BB2013B9AB2FB68DA86B1
:103E300033E0FB681B689B6803F00203022B13D17D
:103E4000FB681A6BFB681B680C3312781A70FB68EE
:103E50001B6B5A1CFB681A63FB68DB8E9BB2013B31
:103E60009AB2FB68DA8618E0FDF7C8FE0246FB69E5
:103E7000D31A3A689A4203D83B68B3F1FF3F02D1A4
:103E80003B68002B09D1FB68012283F85120FB68B5
:103E9000002283F8502003232DE0FB68DB8E9BB2C9
:103EA000002BC6D1FA693968F86800F0B1F803460A
:103EB000002B02D0FB6820225A65FB689B68002B10
:103EC0000AD100237B61FB681B68DB687B61FB68B0
:103ED0001B689B687B617B69FB68012283F851202A
:103EE000FB68002283F85020FB685B6D002B01D03B
:103EF000012300E0002318462037BD4680BD0000A6
:103F000080B588B000AFF860B9603B601346FB71C4
:103F1000FDF774FE0246BB6A9B1A3A681344FB61C4
:103F2000FDF76CFEB861394B1B685B011B0DFA692C
:103F300002FB03F37B6154E03B68B3F1FF3F50D0D9
:103F4000FDF75CFE0246BB69D31AFA699A4202D9B0
:103F5000FB69002B3DD1FB681B685A68FB681B6836
:103F600022F0E0025A60FB685B68B3F5827F11D1F2
:103F7000FB689B68B3F5004F04D0FB689B68B3F502
:103F8000806F07D1FB681B681A68FB681B6822F00A
:103F900040021A60FB689B6AB3F5005F0FD1FB68B3
:103FA0001B681A68FB681B6822F400521A60FB68E1
:103FB0001B681A68FB681B6842F400521A60FB68B1
:103FC000012283F85120FB68002283F8502003234C
:103FD00017E07B69002B01D10023FB617B69013B6A
:103FE0007B61FB681B689A68BB681340BA689A4299
:103FF0000CBF01230023DBB21A46FB799A429BD106
:10400000002318462037BD4680BD00BF00000020B9
:1040100080B588B002AFF860B9607A607B680093C1
:10402000BB6801220221F868FFF76AFF0346002BF4
:1040300007D0FB685B6D43F02002FB685A650323E1
:1040400032E01B4B1B681B4AA2FB03235B0D4FF4A2
:104050007A7202FB03F37B61FB685B68B3F5827FD6
:1040600012D17B680093BB6800228021F868FFF7BB
:1040700047FF0346002B16D0FB685B6D43F0200220
:10408000FB685A6503230FE07B69002B0AD07B692C
:10409000013B7B61FB681B689B6803F08003802BFE
:1040A000F2D000E000BF002318461837BD4680BD9F
:1040B00000000020819F5E1680B582B000AF78605E
:1040C0007B68002B01D1012341E07B6893F83D30F0
:1040D000DBB2002B06D17B68002283F83C20786895
:1040E000FDF734FC7B68022283F83D207B681A6868
:1040F0007B6804331946104600F07EFA7B68012283
:1041000083F846207B68012283F83E207B680122E9
:1041100083F83F207B68012283F840207B680122DE
:1041200083F841207B68012283F842207B680122CA
:1041300083F843207B68012283F844207B680122B6
:1041400083F845207B68012283F83D200023184630
:104150000837BD4680BD000080B485B000AF7860F0
:104160007B6893F83D30DBB2012B01D001234EE098
:104170007B68022283F83D207B681B68DA687B68D5
:104180001B6842F00102DA607B681B68234A934295
:1041900022D07B681B68B3F1804F1DD07B681B6801
:1041A0001F4A934218D07B681B681E4A934213D063
:1041B0007B681B681C4A93420ED07B681B681B4AB5
:1041C000934209D07B681B68194A934204D07B68EC
:1041D0001B68184A934211D17B681B689B6803F0E7
:1041E0000703FB60FB68062B10D07B681B681A680E
:1041F0007B681B6842F001021A6007E07B681B685D
:104200001A687B681B6842F001021A600023184696
:104210001437BD465DF8047B704700BF00000140C5
:104220000004004000080040000C00400004014071
:10423000004001400018004080B584B000AF7860B5
:104240007B681B68DB68FB607B681B681B69BB6065
:10425000BB6803F00203002B20D0FB6803F00203CD
:10426000002B1BD07B681B686FF002021A617B6811
:1042700001221A777B681B689B6903F00303002BFC
:1042800003D0786800F099F905E0786800F08BF9C0
:10429000786800F09CF97B6800221A77BB6803F00D
:1042A0000403002B20D0FB6803F00403002B1BD079
:1042B0007B681B686FF004021A617B6802221A7720
:1042C0007B681B689B6903F44073002B03D07868FC
:1042D00000F073F905E0786800F065F9786800F09F
:1042E00076F97B6800221A77BB6803F00803002B7D
:1042F00020D0FB6803F00803002B1BD07B681B68F1
:104300006FF008021A617B6804221A777B681B68C9
:10431000DB6903F00303002B03D0786800F04DF94C
:1043200005E0786800F03FF9786800F050F97B68A4
:1043300000221A77BB6803F01003002B20D0FB6823
:1043400003F01003002B1BD07B681B686FF010027A
:104350001A617B6808221A777B681B68DB6903F4A3
:104360004073002B03D0786800F027F905E07868E7
:1043700000F019F9786800F02AF97B6800221A77B2
:10438000BB6803F00103002B0CD0FB6803F00103B2
:10439000002B07D07B681B686FF001021A617868F8
:1043A000FDF708F8BB6803F08003002B0CD0FB6816
:1043B00003F08003002B07D07B681B686FF080023E
:1043C0001A61786800F0E4FABB6803F04003002B40
:1043D0000CD0FB6803F04003002B07D07B681B6800
:1043E0006FF040021A61786800F0FBF8BB6803F0D8
:1043F0002003002B0CD0FB6803F02003002B07D018
:104400007B681B686FF020021A61786800F0B6FACA
:1044100000BF1037BD4680BD80B584B000AF786066
:1044200039600023FB737B6893F83C30012B01D18A
:104430000223B4E07B68012283F83C207B680222DF
:1044400083F83D207B681B689B68BB60BB6823F0DA
:104450007703BB60BB6823F47F43BB607B681B684A
:10446000BA689A603B681B68B3F5005F3ED0B3F54D
:10447000005F00F28780B3F5805F00F08680B3F5BF
:10448000805F7FD8702B1AD0702B7BD8602B50D0D8
:10449000602B77D8502B3CD0502B73D8402B58D062
:1044A000402B6FD8302B64D0302B6BD8202B60D0B2
:1044B000202B67D8002B5CD0102B5AD062E07B6891
:1044C00018683B6899683B685A683B68DB6800F08D
:1044D000B9F97B681B689B68BB60BB6843F07703D6
:1044E000BB607B681B68BA689A604FE07B6818689D
:1044F0003B6899683B685A683B68DB6800F0A2F942
:104500007B681B689A687B681B6842F480429A60EB
:104510003CE07B6818683B6859683B68DB681A4672
:1045200000F016F97B681B685021184600F06FF9FF
:104530002CE07B6818683B6859683B68DB681A4662
:1045400000F035F97B681B686021184600F05FF9C0
:104550001CE07B6818683B6859683B68DB681A4652
:1045600000F0F6F87B681B684021184600F04FF910
:104570000CE07B681A683B681B681946104600F01F
:1045800046F903E00123FB7300E000BF7B680122D2
:1045900083F83D207B68002283F83C20FB7B184693
:1045A0001037BD4680BD80B483B000AF786000BFD7
:1045B0000C37BD465DF8047B704780B483B000AF14
:1045C000786000BF0C37BD465DF8047B704780B44F
:1045D00083B000AF786000BF0C37BD465DF8047B48
:1045E000704780B483B000AF786000BF0C37BD4621
:1045F0005DF8047B7047000080B485B000AF786040
:1046000039607B681B68FB607B68464A934213D025
:104610007B68B3F1804F0FD07B68434A93420BD045
:104620007B68424A934207D07B68414A934203D059
:104630007B68404A934208D1FB6823F07003FB601B
:104640003B685B68FA681343FB607B68354A9342BA
:104650002BD07B68B3F1804F27D07B68324A9342DE
:1046600023D07B68314A93421FD07B68304A934203
:104670001BD07B682F4A934217D07B682E4A934207
:1046800013D07B682D4A93420FD07B682C4A93420B
:104690000BD07B682B4A934207D07B682A4A93420F
:1046A00003D07B68294A934208D1FB6823F4407306
:1046B000FB603B68DB68FA681343FB60FB6823F030
:1046C00080023B685B691343FB607B68FA681A6091
:1046D0003B689A687B68DA623B681A687B689A6212
:1046E0007B68104A934203D07B68124A934203D1FD
:1046F0003B681A697B681A637B6801225A617B6890
:104700001B6903F00103012B05D17B681B6923F0B2
:1047100001027B681A6100BF1437BD465DF8047B57
:10472000704700BF00000140000400400008004046
:10473000000C0040000401400040014000440140E2
:104740000048014000180040001C004000200040CC
:1047500080B487B000AFF860B9607A60FB681B6A0C
:104760007B61FB681B6A23F00102FB681A62FB682D
:104770009B693B613B6923F0F0033B617B681B0154
:104780003A6913433B617B6923F00A037B617A69D1
:10479000BB6813437B61FB683A699A61FB687A697D
:1047A0001A6200BF1C37BD465DF8047B704780B4B9
:1047B00087B000AFF860B9607A60FB681B6A7B6104
:1047C000FB681B6A23F01002FB681A62FB689B6996
:1047D0003B613B6923F470433B617B681B033A698F
:1047E00013433B617B6923F0A0037B61BB681B0122
:1047F0007A6913437B61FB683A699A61FB687A695D
:104800001A6200BF1C37BD465DF8047B704780B458
:1048100085B000AF786039607B689B68FB60FB689F
:1048200023F07003FB603A68FB68134343F007030F
:10483000FB607B68FA689A6000BF1437BD465DF87C
:10484000047B704780B487B000AFF860B9607A60CD
:104850003B60FB689B687B617B6923F47F437B61E2
:104860003B681A027B681A43BB6813437A69134397
:104870007B61FB687A699A6000BF1C37BD465DF8B2
:10488000047B704780B485B000AF786039607B6886
:1048900093F83C30012B01D102235AE07B680122BE
:1048A00083F83C207B68022283F83D207B681B68EC
:1048B0005B68FB607B681B689B68BB60FB6823F0E0
:1048C0007003FB603B681B68FA681343FB607B68FE
:1048D0001B68FA685A607B681B68214A934222D0A1
:1048E0007B681B68B3F1804F1DD07B681B681D4A35
:1048F000934218D07B681B681B4A934213D07B6895
:104900001B681A4A93420ED07B681B68184A934270
:1049100009D07B681B68174A934204D07B681B68E8
:10492000154A93420CD1BB6823F08003BB603B68FF
:104930005B68BA681343BB607B681B68BA689A609F
:104940007B68012283F83D207B68002283F83C20AD
:10495000002318461437BD465DF8047B704700BF3E
:10496000000001400004004000080040000C00402E
:1049700000040140004001400018004080B483B0B2
:1049800000AF786000BF0C37BD465DF8047B704710
:1049900080B483B000AF786000BF0C37BD465DF8CF
:1049A000047B704780B582B000AF78607B68002BD5
:1049B00001D1012342E07B6893F84130DBB2002B48
:1049C00006D17B68002283F840207868FDF708F85C
:1049D0007B68242283F841207B681B68DA687B6847
:1049E0001B6822F40052DA60786800F085FF7B686B
:1049F0001B681A697B681B6822F490421A617B6805
:104A00001B685A697B681B6822F02A025A617B681E
:104A10001B68DA687B681B6842F40052DA607B68C6
:104A200000225A647B68202283F841207B68202280
:104A300083F842207B6800225A6300231846083717
:104A4000BD4680BD80B58AB002AFF860B9603B60FA
:104A50001346FB8000237B61FB6893F84130DBB297
:104A6000202B75D1BB68002B02D0FB88002B01D115
:104A700001236EE0FB6800225A64FB68212283F860
:104A80004120FDF7BBF87861FB68FA889A84FB68DF
:104A9000FA88DA84FB689B68B3F5805F08D1FB680D
:104AA0001B69002B04D10023FB61BB68BB6103E0E1
:104AB000BB68FB610023BB612EE03B6800937B6910
:104AC00000228021F86800F05DFC0346002B05D031
:104AD000FB68202283F8412003233AE0FB69002B86
:104AE0000BD1BB691B881A46FB681B68C2F308021E
:104AF0005A60BB690233BB6107E0FB691A78FB6847
:104B00001B685A60FB690133FB61FB68DB8C9BB25D
:104B1000013B9AB2FB68DA84FB68DB8C9BB2002B0A
:104B2000CBD13B6800937B6900224021F86800F0FC
:104B300029FC0346002B05D0FB68202283F8412086
:104B4000032306E0FB68202283F84120002300E0D5
:104B5000022318462037BD4680BD80B58CB000AF1B
:104B6000F860B9601346FB80FB6893F84230DBB213
:104B7000202B4AD1BB68002B02D0FB88002B01D12F
:104B8000012343E0FB6801221A63FB6800225A6399
:104B9000FB881A46B968F86800F04EFC034687F8AF
:104BA0002F3097F82F30002B2CD1FB681B6B012B7B
:104BB00025D100233B61FB681B681B683B61FB68D8
:104BC0001B685B683B613B69FB681B680C33BB611E
:104BD000BB6953E8003F7B617B6943F01003BB6214
:104BE000FB681B680C33BA6A7A623B62396A7A6A7C
:104BF00041E80023FB61FB69002BE5D102E00123C2
:104C000087F82F3097F82F3000E00223184630370E
:104C1000BD4680BD80B5BAB000AF78607B681B68C8
:104C20001B68C7F8E4307B681B68DB68C7F8E030B6
:104C30007B681B685B69C7F8DC300023C7F8D83095
:104C40000023C7F8D430D7F8E43003F00F03C7F8D7
:104C5000D830D7F8D830002B0FD1D7F8E43003F094
:104C60002003002B09D0D7F8E03003F02003002BFD
:104C700003D0786800F081FD5BE2D7F8D830002BD4
:104C800000F0DE80D7F8DC3003F00103002B06D102
:104C9000D7F8E03003F49073002B00F0D180D7F800
:104CA000E43003F00103002B0BD0D7F8E03003F41D
:104CB0008073002B05D07B685B6C43F001027B683E
:104CC0005A64D7F8E43003F00403002B0BD0D7F874
:104CD000DC3003F00103002B05D07B685B6C43F0F4
:104CE00002027B685A64D7F8E43003F00203002B19
:104CF0000BD0D7F8DC3003F00103002B05D07B6824
:104D00005B6C43F004027B685A64D7F8E43003F02C
:104D10000803002B11D0D7F8E03003F02003002B5C
:104D200005D1D7F8DC3003F00103002B05D07B68F8
:104D30005B6C43F008027B685A647B685B6C002BF9
:104D400000F0F281D7F8E43003F02003002B08D004
:104D5000D7F8E03003F02003002B02D0786800F091
:104D60000CFD7B681B685B6903F04003402B0CBFA4
:104D700001230023DBB2C7F8D4307B685B6C03F0FF
:104D80000803002B03D1D7F8D430002B4FD078681C
:104D900000F014FC7B681B685B6903F04003402B48
:104DA00041D17B681B681433C7F89C30D7F89C301E
:104DB00053E8003FC7F89830D7F8983023F0400305
:104DC000C7F8D0307B681B681433D7F8D020C7F8F9
:104DD000A820C7F8A430D7F8A410D7F8A82041E835
:104DE0000023C7F8A030D7F8A030002BD9D17B68BA
:104DF000DB6B002B13D07B68DB6B7E4A1A657B680C
:104E0000DB6B1846FDF78AFD0346002B16D07B6846
:104E1000DB6B1B6D7A68D26B104698470EE07868A2
:104E200000F0A8F90AE0786800F0A4F906E07868D4
:104E300000F0A0F97B6800225A6475E100BF73E1BD
:104E40007B681B6B012B40F04F81D7F8E43003F0F7
:104E50001003002B00F04881D7F8E03003F0100376
:104E6000002B00F041810023BB607B681B681B683E
:104E7000BB607B681B685B68BB60BB687B681B684A
:104E80005B6903F04003402B40F0B6807B68DB6B2E
:104E90001B685B68A7F8BE30B7F8BE30002B00F087
:104EA00045817B689B8DB7F8BE209A4280F03E8199
:104EB0007B68B7F8BE20DA857B68DB6BDB69B3F50E
:104EC000807F00F088807B681B680C33C7F88830CF
:104ED000D7F8883053E8003FC7F88430D7F88430DB
:104EE00023F48073C7F8B8307B681B680C33D7F89D
:104EF000B820C7F89420C7F89030D7F89010D7F8AA
:104F0000942041E80023C7F88C30D7F88C30002B70
:104F1000D9D17B681B6814337B677B6F53E8003FF4
:104F20003B673B6F23F00103C7F8B4307B681B6815
:104F30001433D7F8B420C7F88020FB67F96FD7F88F
:104F4000802041E80023BB67BB6F002BE1D17B6869
:104F50001B6814333B663B6E53E8003FFB65FB6DFB
:104F600023F04003C7F8B0307B681B681433D7F8D0
:104F7000B020FA66BB66B96EFA6E41E800237B6624
:104F80007B6E002BE3D17B68202283F842207B6874
:104F900000221A637B681B680C33FB64FB6C53E8CC
:104FA000003FBB64BB6C23F01003C7F8AC307B68D8
:104FB0001B680C33D7F8AC20BA657B65796DBA6D88
:104FC00041E800233B653B6D002BE3D17B68DB6B45
:104FD0001846FDF733FC7B6802225A637B689A8D82
:104FE0007B68DB8D9BB2D31A9BB21946786803F0BD
:104FF0009DFB9BE0835600087B689A8D7B68DB8D68
:105000009BB2D31AA7F8CE307B68DB8D9BB2002B06
:1050100000F08E80B7F8CE30002B00F089807B68DE
:105020001B680C33BB63BB6B53E8003F7B637B6B3C
:1050300023F49073C7F8C8307B681B680C33D7F82B
:10504000C8207A643B64396C7A6C41E80023FB63C6
:10505000FB6B002BE3D17B681B6814337B627B6A9C
:1050600053E8003F3B623B6A23F00103C7F8C430BA
:105070007B681B681433D7F8C4203A63FB62F96A73
:105080003A6B41E80023BB62BB6A002BE3D17B682B
:10509000202283F842207B6800221A637B681B6809
:1050A0000C333B613B6953E8003FFB60FB6823F036
:1050B0001003C7F8C0307B681B680C33D7F8C020DA
:1050C000FA61BB61B969FA6941E800237B617B69D8
:1050D000002BE3D17B6802225A63B7F8CE30194621
:1050E000786803F023FB23E0D7F8E43003F0800373
:1050F000002B09D0D7F8E03003F08003002B03D059
:10510000786800F0D2FA14E0D7F8E43003F04003F6
:10511000002B0ED0D7F8E03003F04003002B08D06E
:10512000786800F012FB04E000BF02E000BF00E07E
:1051300000BFE837BD4680BD80B483B000AF786063
:1051400000BF0C37BD465DF8047B704780B483B068
:1051500000AF786000BF0C37BD465DF8047B704738
:1051600080B483B000AF786000BF0C37BD465DF8F7
:10517000047B704780B483B000AF786000BF0C3709
:10518000BD465DF8047B704780B59CB000AF786089
:105190007B689B6BFB667B681B681B6803F48073F2
:1051A000002B72D1FB6E0022DA85FB6E1B680C337C
:1051B000FB64FB6C53E8003FBB64BB6C23F480735F
:1051C000BB66FB6E1B680C33BA6EBA657B65796D86
:1051D000BA6D41E800233B653B6D002BE5D1FB6ECA
:1051E0001B681433BB63BB6B53E8003F7B637B6B73
:1051F00023F001037B66FB6E1B6814337A6E7A64BE
:105200003B64396C7A6C41E80023FB63FB6B002B39
:10521000E5D1FB6E1B6814337B627B6A53E8003F69
:105220003B623B6A23F040033B66FB6E1B68143312
:105230003A6E3A63FB62F96A3A6B41E80023BB625B
:10524000BB6A002BE5D1FB6E202283F84220FB6E67
:105250001B6B012B19D1FB6E1B680C333B613B6947
:1052600053E8003FFB60FB6823F01003FB65FB6E17
:105270001B680C33FA6DFA61BB61B969FA6941E8E0
:1052800000237B617B69002BE5D1FB6E00225A6312
:10529000FB6E1B6B012B06D1FB6E9B8D1946F86EC6
:1052A00003F044FA02E0F86EFFF750FF00BF7037DA
:1052B000BD4680BD80B584B000AF78607B689B6BD5
:1052C000FB60FB6801225A63FB681B6B012B08D152
:1052D000FB689B8D5B089BB21946F86803F026FAC1
:1052E00002E0F868FFF73CFF00BF1037BD4680BD05
:1052F00080B584B000AF78600023FB607B689B6B57
:10530000BB60BB681B685B6903F08003802B0CBF2C
:1053100001230023DBB2FB60BB6893F84130DBB2B2
:10532000212B08D1FB68002B05D0BB680022DA8452
:10533000B86800F01BF9BB681B685B6903F04003A9
:10534000402B0CBF01230023DBB2FB60BB6893F84A
:105350004230DBB2222B08D1FB68002B05D0BB68A2
:105360000022DA85B86800F029F9BB685B6C43F06D
:105370001002BB685A64B868FFF7FCFE00BF103724
:10538000BD4680BD80B586B000AFF860B9603B60B7
:105390001346FB713BE03B6AB3F1FF3F37D0FCF7AC
:1053A0002DFC02463B68D31A3A6A9A4202D33B6A02
:1053B000002B01D103233AE0FB681B68DB6803F094
:1053C0000403002B23D0BB68802B20D0BB68402B6C
:1053D0001DD0FB681B681B6803F00803082B16D15F
:1053E00000237B61FB681B681B687B61FB681B6893
:1053F0005B687B617B69F86800F0E0F8FB68082275
:105400005A64FB68002283F8402001230FE0FB6808
:105410001B681A68BB681340BA689A420CBF012324
:105420000023DBB21A46FB799A42B4D00023184617
:105430001837BD4680BD000080B598B000AFF86059
:10544000B9601346FB80BA68FB689A62FB68FA8809
:105450009A85FB6800225A64FB68222283F8422066
:10546000FB68DB6B3E4ADA63FB68DB6B3D4A1A6420
:10547000FB68DB6B3C4ADA64FB68DB6B00221A6575
:1054800007F10803FB65FB68D86BFB681B680433F6
:105490001946FB6D1A68FB88FDF778F900233B611C
:1054A000FB681B681B683B61FB681B685B683B61B2
:1054B0003B69FB681B69002B19D0FB681B680C3328
:1054C0003B643B6C53E8003FFB63FB6B43F480732E
:1054D000BB65FB681B680C33BA6DFA64BB64B96CBE
:1054E000FA6C41E800237B647B6C002BE5D1FB6800
:1054F0001B681433FB62FB6A53E8003FBB62BB6A64
:1055000043F001037B65FB681B6814337A6DBA6353
:105510007B63796BBA6B41E800233B633B6B002BE9
:10552000E5D1FB681B681433BB61BB6953E8003FDE
:105530007B617B6943F040033B65FB681B68143368
:105540003A6D7A623B62396A7A6A41E80023FB610C
:10555000FB69002BE5D1002318466037BD4680BDAE
:1055600089510008B5520008F152000880B489B092
:1055700000AF78607B681B680C33FB60FB6853E806
:10558000003FBB60BB6823F0C003FB617B681B6806
:105590000C33FA69BA617B617969BA6941E8002321
:1055A0003B613B69002BE5D17B68202283F84120D9
:1055B00000BF2437BD465DF8047B704780B495B0CA
:1055C00000AF78607B681B680C337B637B6B53E8B0
:1055D000003F3B633B6B23F49073FB647B681B6869
:1055E0000C33FA6C3A64FB63F96B3A6C41E80023C4
:1055F000BB63BB6B002BE5D17B681B6814333B623C
:105600003B6A53E8003FFB61FB6923F00103BB6485
:105610007B681B681433BA6CFA62BB62B96AFA6AB7
:1056200041E800237B627B6A002BE5D17B681B6B22
:10563000012B19D17B681B680C33FB60FB6853E8B6
:10564000003FBB60BB6823F010037B647B681B6872
:105650000C337A6CBA617B617969BA6941E80023DD
:105660003B613B69002BE5D17B68202283F8422017
:105670007B6800221A6300BF5437BD465DF8047B87
:10568000704780B584B000AF78607B689B6BFB602F
:10569000FB680022DA85FB680022DA84F868FFF7ED
:1056A00069FD00BF1037BD4680BD80B485B000AF36
:1056B00078607B6893F84130DBB2212B3ED17B6868
:1056C0009B68B3F5805F14D17B681B69002B10D1F8
:1056D0007B681B6AFB60FB681B881A467B681B683B
:1056E000C2F308025A607B681B6A9A1C7B681A62C4
:1056F00008E07B681B6A591C7A6811621A787B681B
:105700001B685A607B68DB8C9BB2013B9BB27A685A
:105710001946D184002B0FD17B681B68DA687B683F
:105720001B6822F08002DA607B681B68DA687B689D
:105730001B6842F04002DA60002300E002231846B2
:105740001437BD465DF8047B704780B582B000AF6A
:1057500078607B681B68DA687B681B6822F040020F
:10576000DA607B68202283F841207868FFF7E4FC48
:10577000002318460837BD4680BD80B58CB000AF09
:1057800078607B6893F84230DBB2222B40F0AE8029
:105790007B689B68B3F5805F17D17B681B69002B22
:1057A00013D10023FB627B689B6ABB627B681B682A
:1057B0005B689BB2C3F308039AB2BB6A1A807B682A
:1057C0009B6A9A1C7B689A6226E07B689B6AFB62F4
:1057D0000023BB627B689B68B3F5805F07D07B6862
:1057E0009B68002B0AD17B681B69002B06D17B6864
:1057F0001B685B68DAB2FB6A1A7008E07B681B689A
:105800005B68DBB203F07F03DAB2FB6A1A707B6875
:105810009B6A5A1C7B689A627B68DB8D9BB2013B5A
:105820009BB27A681946D185002B5DD17B681B68D5
:10583000DA687B681B6822F02002DA607B681B68EC
:10584000DA687B681B6822F48072DA607B681B6808
:105850005A697B681B6822F001025A617B6820222A
:1058600083F842207B6800225A637B681B6B012B04
:1058700035D17B6800221A637B681B680C337B611F
:105880007B6953E8003F3B613B6923F010037B6277
:105890007B681B680C337A6A3A62FB61F9693A6A81
:1058A00041E80023BB61BB69002BE5D17B681B6825
:1058B0001B6803F01003102B0AD10023FB607B68E8
:1058C0001B681B68FB607B681B685B68FB60FB6890
:1058D0007B689B8D1946786802F028FF02E07868A3
:1058E000FFF734FC002302E0002300E00223184607
:1058F0003037BD4680BD00002DE9B04FC0B000AFCD
:10590000C7F8F400D7F8F4301B681B6923F4405043
:10591000D7F8F430D968D7F8F4301A6840EA0103B0
:105920001361D7F8F4309A68D7F8F4301B691A433A
:10593000D7F8F4305B691A43D7F8F430DB691343C6
:10594000C7F8F830D7F8F4301B68DB6823F4164149
:1059500021F00C01D7F8F4301A68D7F8F8300B436F
:10596000D360D7F8F4301B685B6923F44070D7F834
:10597000F4309969D7F8F4301A6840EA01035361AA
:10598000D7F8F4301A688F4B9A4205D0D7F8F43024
:105990001A688D4B9A4204D1FEF79EF8C7F8FC00B6
:1059A00003E0FEF785F8C7F8FC00D7F8F430DB69B0
:1059B000B3F5004F40F00C81D7F8FC300022C7F857
:1059C000E830C7F8EC20D7E93A4522462B46911833
:1059D000B9655B41FB65D7E91623214612EB010847
:1059E000294643EB01094FF000024FF000034FEA54
:1059F000C90343EA58734FEAC802904699462346C2
:105A000018EB0303C7F8E0302B4649EB0303C7F854
:105A1000E430D7F8F4305B680022C7F8D830C7F814
:105A2000DC20D7E936120B46DB183B65134642EB08
:105A300003037B65D7E91423D7E93801FAF7D6FECB
:105A400002460B46614BA3FB02235B091C01D7F8FE
:105A5000FC300022C7F8D030C7F8D420D7E9348909
:105A600042464B469118B9645B41FB64D7E9122367
:105A7000414612EB010A494643EB010B4FF000028D
:105A80004FF000034FEACB0343EA5A734FEACA02CE
:105A900092469B4643461AEB0303C7F8C8304B4671
:105AA0004BEB0303C7F8CC30D7F8F4305B68002227
:105AB000C7F8C030C7F8C420D7E930120B46DB184E
:105AC0003B64134642EB03037B64D7E91023D7E919
:105AD0003201FAF78BFE02460B4611463B4BA3FB05
